{
  "contractName": "ERC721Tradable",
  "abi": [
    {
      "inputs": [
        {
          "internalType": "string",
          "name": "_name",
          "type": "string"
        },
        {
          "internalType": "string",
          "name": "_symbol",
          "type": "string"
        },
        {
          "internalType": "address",
          "name": "_proxyRegistryAddress",
          "type": "address"
        }
      ],
      "stateMutability": "nonpayable",
      "type": "constructor"
    },
    {
      "anonymous": false,
      "inputs": [
        {
          "indexed": true,
          "internalType": "address",
          "name": "owner",
          "type": "address"
        },
        {
          "indexed": true,
          "internalType": "address",
          "name": "approved",
          "type": "address"
        },
        {
          "indexed": true,
          "internalType": "uint256",
          "name": "tokenId",
          "type": "uint256"
        }
      ],
      "name": "Approval",
      "type": "event"
    },
    {
      "anonymous": false,
      "inputs": [
        {
          "indexed": true,
          "internalType": "address",
          "name": "owner",
          "type": "address"
        },
        {
          "indexed": true,
          "internalType": "address",
          "name": "operator",
          "type": "address"
        },
        {
          "indexed": false,
          "internalType": "bool",
          "name": "approved",
          "type": "bool"
        }
      ],
      "name": "ApprovalForAll",
      "type": "event"
    },
    {
      "anonymous": false,
      "inputs": [
        {
          "indexed": true,
          "internalType": "address",
          "name": "previousOwner",
          "type": "address"
        },
        {
          "indexed": true,
          "internalType": "address",
          "name": "newOwner",
          "type": "address"
        }
      ],
      "name": "OwnershipTransferred",
      "type": "event"
    },
    {
      "anonymous": false,
      "inputs": [
        {
          "indexed": true,
          "internalType": "address",
          "name": "from",
          "type": "address"
        },
        {
          "indexed": true,
          "internalType": "address",
          "name": "to",
          "type": "address"
        },
        {
          "indexed": true,
          "internalType": "uint256",
          "name": "tokenId",
          "type": "uint256"
        }
      ],
      "name": "Transfer",
      "type": "event"
    },
    {
      "inputs": [
        {
          "internalType": "address",
          "name": "to",
          "type": "address"
        },
        {
          "internalType": "uint256",
          "name": "tokenId",
          "type": "uint256"
        }
      ],
      "name": "approve",
      "outputs": [],
      "stateMutability": "nonpayable",
      "type": "function"
    },
    {
      "inputs": [
        {
          "internalType": "address",
          "name": "owner",
          "type": "address"
        }
      ],
      "name": "balanceOf",
      "outputs": [
        {
          "internalType": "uint256",
          "name": "",
          "type": "uint256"
        }
      ],
      "stateMutability": "view",
      "type": "function"
    },
    {
      "inputs": [],
      "name": "baseURI",
      "outputs": [
        {
          "internalType": "string",
          "name": "",
          "type": "string"
        }
      ],
      "stateMutability": "view",
      "type": "function"
    },
    {
      "inputs": [
        {
          "internalType": "uint256",
          "name": "tokenId",
          "type": "uint256"
        }
      ],
      "name": "getApproved",
      "outputs": [
        {
          "internalType": "address",
          "name": "",
          "type": "address"
        }
      ],
      "stateMutability": "view",
      "type": "function"
    },
    {
      "inputs": [],
      "name": "name",
      "outputs": [
        {
          "internalType": "string",
          "name": "",
          "type": "string"
        }
      ],
      "stateMutability": "view",
      "type": "function"
    },
    {
      "inputs": [],
      "name": "owner",
      "outputs": [
        {
          "internalType": "address",
          "name": "",
          "type": "address"
        }
      ],
      "stateMutability": "view",
      "type": "function"
    },
    {
      "inputs": [
        {
          "internalType": "uint256",
          "name": "tokenId",
          "type": "uint256"
        }
      ],
      "name": "ownerOf",
      "outputs": [
        {
          "internalType": "address",
          "name": "",
          "type": "address"
        }
      ],
      "stateMutability": "view",
      "type": "function"
    },
    {
      "inputs": [],
      "name": "renounceOwnership",
      "outputs": [],
      "stateMutability": "nonpayable",
      "type": "function"
    },
    {
      "inputs": [
        {
          "internalType": "address",
          "name": "from",
          "type": "address"
        },
        {
          "internalType": "address",
          "name": "to",
          "type": "address"
        },
        {
          "internalType": "uint256",
          "name": "tokenId",
          "type": "uint256"
        }
      ],
      "name": "safeTransferFrom",
      "outputs": [],
      "stateMutability": "nonpayable",
      "type": "function"
    },
    {
      "inputs": [
        {
          "internalType": "address",
          "name": "from",
          "type": "address"
        },
        {
          "internalType": "address",
          "name": "to",
          "type": "address"
        },
        {
          "internalType": "uint256",
          "name": "tokenId",
          "type": "uint256"
        },
        {
          "internalType": "bytes",
          "name": "_data",
          "type": "bytes"
        }
      ],
      "name": "safeTransferFrom",
      "outputs": [],
      "stateMutability": "nonpayable",
      "type": "function"
    },
    {
      "inputs": [
        {
          "internalType": "address",
          "name": "operator",
          "type": "address"
        },
        {
          "internalType": "bool",
          "name": "approved",
          "type": "bool"
        }
      ],
      "name": "setApprovalForAll",
      "outputs": [],
      "stateMutability": "nonpayable",
      "type": "function"
    },
    {
      "inputs": [
        {
          "internalType": "bytes4",
          "name": "interfaceId",
          "type": "bytes4"
        }
      ],
      "name": "supportsInterface",
      "outputs": [
        {
          "internalType": "bool",
          "name": "",
          "type": "bool"
        }
      ],
      "stateMutability": "view",
      "type": "function"
    },
    {
      "inputs": [],
      "name": "symbol",
      "outputs": [
        {
          "internalType": "string",
          "name": "",
          "type": "string"
        }
      ],
      "stateMutability": "view",
      "type": "function"
    },
    {
      "inputs": [
        {
          "internalType": "uint256",
          "name": "index",
          "type": "uint256"
        }
      ],
      "name": "tokenByIndex",
      "outputs": [
        {
          "internalType": "uint256",
          "name": "",
          "type": "uint256"
        }
      ],
      "stateMutability": "view",
      "type": "function"
    },
    {
      "inputs": [
        {
          "internalType": "address",
          "name": "owner",
          "type": "address"
        },
        {
          "internalType": "uint256",
          "name": "index",
          "type": "uint256"
        }
      ],
      "name": "tokenOfOwnerByIndex",
      "outputs": [
        {
          "internalType": "uint256",
          "name": "",
          "type": "uint256"
        }
      ],
      "stateMutability": "view",
      "type": "function"
    },
    {
      "inputs": [],
      "name": "totalSupply",
      "outputs": [
        {
          "internalType": "uint256",
          "name": "",
          "type": "uint256"
        }
      ],
      "stateMutability": "view",
      "type": "function"
    },
    {
      "inputs": [
        {
          "internalType": "address",
          "name": "from",
          "type": "address"
        },
        {
          "internalType": "address",
          "name": "to",
          "type": "address"
        },
        {
          "internalType": "uint256",
          "name": "tokenId",
          "type": "uint256"
        }
      ],
      "name": "transferFrom",
      "outputs": [],
      "stateMutability": "nonpayable",
      "type": "function"
    },
    {
      "inputs": [
        {
          "internalType": "address",
          "name": "newOwner",
          "type": "address"
        }
      ],
      "name": "transferOwnership",
      "outputs": [],
      "stateMutability": "nonpayable",
      "type": "function"
    },
    {
      "inputs": [
        {
          "internalType": "address",
          "name": "_to",
          "type": "address"
        }
      ],
      "name": "mintTo",
      "outputs": [],
      "stateMutability": "nonpayable",
      "type": "function"
    },
    {
      "inputs": [],
      "name": "baseTokenURI",
      "outputs": [
        {
          "internalType": "string",
          "name": "",
          "type": "string"
        }
      ],
      "stateMutability": "pure",
      "type": "function"
    },
    {
      "inputs": [
        {
          "internalType": "uint256",
          "name": "_tokenId",
          "type": "uint256"
        }
      ],
      "name": "tokenURI",
      "outputs": [
        {
          "internalType": "string",
          "name": "",
          "type": "string"
        }
      ],
      "stateMutability": "view",
      "type": "function"
    },
    {
      "inputs": [
        {
          "internalType": "address",
          "name": "owner",
          "type": "address"
        },
        {
          "internalType": "address",
          "name": "operator",
          "type": "address"
        }
      ],
      "name": "isApprovedForAll",
      "outputs": [
        {
          "internalType": "bool",
          "name": "",
          "type": "bool"
        }
      ],
      "stateMutability": "view",
      "type": "function"
    }
  ],
  "bytecode": "0x60806040526000600c553480156200001657600080fd5b50604051620033ba380380620033ba833981810160405260608110156200003c57600080fd5b81019080805160405193929190846401000000008211156200005d57600080fd5b838201915060208201858111156200007457600080fd5b82518660018202830111640100000000821117156200009257600080fd5b8083526020830192505050908051906020019080838360005b83811015620000c8578082015181840152602081019050620000ab565b50505050905090810190601f168015620000f65780820380516001836020036101000a031916815260200191505b50604052602001805160405193929190846401000000008211156200011a57600080fd5b838201915060208201858111156200013157600080fd5b82518660018202830111640100000000821117156200014f57600080fd5b8083526020830192505050908051906020019080838360005b838110156200018557808201518184015260208101905062000168565b50505050905090810190601f168015620001b35780820380516001836020036101000a031916815260200191505b50604052602001805190602001909291905050508282620001e16301ffc9a760e01b6200035860201b60201c565b8160069080519060200190620001f992919062000469565b5080600790805190602001906200021292919062000469565b506200022b6380ac58cd60e01b6200035860201b60201c565b62000243635b5e139f60e01b6200035860201b60201c565b6200025b63780e9d6360e01b6200035860201b60201c565b505060006200026f6200046160201b60201c565b905080600a60006101000a81548173ffffffffffffffffffffffffffffffffffffffff021916908373ffffffffffffffffffffffffffffffffffffffff1602179055508073ffffffffffffffffffffffffffffffffffffffff16600073ffffffffffffffffffffffffffffffffffffffff167f8be0079c531659141344cd1fd0a4f28419497f9722a3daafe3b4186f6b6457e060405160405180910390a35080600b60006101000a81548173ffffffffffffffffffffffffffffffffffffffff021916908373ffffffffffffffffffffffffffffffffffffffff16021790555050505062000518565b63ffffffff60e01b817bffffffffffffffffffffffffffffffffffffffffffffffffffffffff19161415620003f5576040517f08c379a000000000000000000000000000000000000000000000000000000000815260040180806020018281038252601c8152602001807f4552433136353a20696e76616c696420696e746572666163652069640000000081525060200191505060405180910390fd5b6001600080837bffffffffffffffffffffffffffffffffffffffffffffffffffffffff19167bffffffffffffffffffffffffffffffffffffffffffffffffffffffff1916815260200190815260200160002060006101000a81548160ff02191690831515021790555050565b600033905090565b828054600181600116156101000203166002900490600052602060002090601f016020900481019282601f10620004ac57805160ff1916838001178555620004dd565b82800160010185558215620004dd579182015b82811115620004dc578251825591602001919060010190620004bf565b5b509050620004ec9190620004f0565b5090565b6200051591905b8082111562000511576000816000905550600101620004f7565b5090565b90565b612e9280620005286000396000f3fe608060405234801561001057600080fd5b50600436106101425760003560e01c806370a08231116100b8578063a22cb4651161007c578063a22cb465146106ed578063b88d4fde1461073d578063c87b56dd14610842578063d547cfb7146108e9578063e985e9c51461096c578063f2fde38b146109e857610142565b806370a082311461057a578063715018a6146105d2578063755edd17146105dc5780638da5cb5b1461062057806395d89b411461066a57610142565b806323b872dd1161010a57806323b872dd146103095780632f745c591461037757806342842e0e146103d95780634f6ccce7146104475780636352211e146104895780636c0360eb146104f757610142565b806301ffc9a71461014757806306fdde03146101ac578063081812fc1461022f578063095ea7b31461029d57806318160ddd146102eb575b600080fd5b6101926004803603602081101561015d57600080fd5b8101908080357bffffffffffffffffffffffffffffffffffffffffffffffffffffffff19169060200190929190505050610a2c565b604051808215151515815260200191505060405180910390f35b6101b4610a93565b6040518080602001828103825283818151815260200191508051906020019080838360005b838110156101f45780820151818401526020810190506101d9565b50505050905090810190601f1680156102215780820380516001836020036101000a031916815260200191505b509250505060405180910390f35b61025b6004803603602081101561024557600080fd5b8101908080359060200190929190505050610b35565b604051808273ffffffffffffffffffffffffffffffffffffffff1673ffffffffffffffffffffffffffffffffffffffff16815260200191505060405180910390f35b6102e9600480360360408110156102b357600080fd5b81019080803573ffffffffffffffffffffffffffffffffffffffff16906020019092919080359060200190929190505050610bd0565b005b6102f3610d14565b6040518082815260200191505060405180910390f35b6103756004803603606081101561031f57600080fd5b81019080803573ffffffffffffffffffffffffffffffffffffffff169060200190929190803573ffffffffffffffffffffffffffffffffffffffff16906020019092919080359060200190929190505050610d25565b005b6103c36004803603604081101561038d57600080fd5b81019080803573ffffffffffffffffffffffffffffffffffffffff16906020019092919080359060200190929190505050610d9b565b6040518082815260200191505060405180910390f35b610445600480360360608110156103ef57600080fd5b81019080803573ffffffffffffffffffffffffffffffffffffffff169060200190929190803573ffffffffffffffffffffffffffffffffffffffff16906020019092919080359060200190929190505050610df6565b005b6104736004803603602081101561045d57600080fd5b8101908080359060200190929190505050610e16565b6040518082815260200191505060405180910390f35b6104b56004803603602081101561049f57600080fd5b8101908080359060200190929190505050610e39565b604051808273ffffffffffffffffffffffffffffffffffffffff1673ffffffffffffffffffffffffffffffffffffffff16815260200191505060405180910390f35b6104ff610e70565b6040518080602001828103825283818151815260200191508051906020019080838360005b8381101561053f578082015181840152602081019050610524565b50505050905090810190601f16801561056c5780820380516001836020036101000a031916815260200191505b509250505060405180910390f35b6105bc6004803603602081101561059057600080fd5b81019080803573ffffffffffffffffffffffffffffffffffffffff169060200190929190505050610f12565b6040518082815260200191505060405180910390f35b6105da610fe7565b005b61061e600480360360208110156105f257600080fd5b81019080803573ffffffffffffffffffffffffffffffffffffffff169060200190929190505050611157565b005b610628611228565b604051808273ffffffffffffffffffffffffffffffffffffffff1673ffffffffffffffffffffffffffffffffffffffff16815260200191505060405180910390f35b610672611252565b6040518080602001828103825283818151815260200191508051906020019080838360005b838110156106b2578082015181840152602081019050610697565b50505050905090810190601f1680156106df5780820380516001836020036101000a031916815260200191505b509250505060405180910390f35b61073b6004803603604081101561070357600080fd5b81019080803573ffffffffffffffffffffffffffffffffffffffff1690602001909291908035151590602001909291905050506112f4565b005b6108406004803603608081101561075357600080fd5b81019080803573ffffffffffffffffffffffffffffffffffffffff169060200190929190803573ffffffffffffffffffffffffffffffffffffffff16906020019092919080359060200190929190803590602001906401000000008111156107ba57600080fd5b8201836020820111156107cc57600080fd5b803590602001918460018302840111640100000000831117156107ee57600080fd5b91908080601f016020809104026020016040519081016040528093929190818152602001838380828437600081840152601f19601f8201169050808301925050505050505091929192905050506114ac565b005b61086e6004803603602081101561085857600080fd5b8101908080359060200190929190505050611524565b6040518080602001828103825283818151815260200191508051906020019080838360005b838110156108ae578082015181840152602081019050610893565b50505050905090810190601f1680156108db5780820380516001836020036101000a031916815260200191505b509250505060405180910390f35b6108f1611536565b6040518080602001828103825283818151815260200191508051906020019080838360005b83811015610931578082015181840152602081019050610916565b50505050905090810190601f16801561095e5780820380516001836020036101000a031916815260200191505b509250505060405180910390f35b6109ce6004803603604081101561098257600080fd5b81019080803573ffffffffffffffffffffffffffffffffffffffff169060200190929190803573ffffffffffffffffffffffffffffffffffffffff16906020019092919050505061154d565b604051808215151515815260200191505060405180910390f35b610a2a600480360360208110156109fe57600080fd5b81019080803573ffffffffffffffffffffffffffffffffffffffff16906020019092919050505061167e565b005b6000806000837bffffffffffffffffffffffffffffffffffffffffffffffffffffffff19167bffffffffffffffffffffffffffffffffffffffffffffffffffffffff1916815260200190815260200160002060009054906101000a900460ff169050919050565b606060068054600181600116156101000203166002900480601f016020809104026020016040519081016040528092919081815260200182805460018160011615610100020316600290048015610b2b5780601f10610b0057610100808354040283529160200191610b2b565b820191906000526020600020905b815481529060010190602001808311610b0e57829003601f168201915b5050505050905090565b6000610b4082611873565b610b95576040517f08c379a000000000000000000000000000000000000000000000000000000000815260040180806020018281038252602c815260200180612db6602c913960400191505060405180910390fd5b6004600083815260200190815260200160002060009054906101000a900473ffffffffffffffffffffffffffffffffffffffff169050919050565b6000610bdb82610e39565b90508073ffffffffffffffffffffffffffffffffffffffff168373ffffffffffffffffffffffffffffffffffffffff161415610c62576040517f08c379a0000000000000000000000000000000000000000000000000000000008152600401808060200182810382526021815260200180612e0b6021913960400191505060405180910390fd5b8073ffffffffffffffffffffffffffffffffffffffff16610c81611890565b73ffffffffffffffffffffffffffffffffffffffff161480610cb05750610caf81610caa611890565b611898565b5b610d05576040517f08c379a0000000000000000000000000000000000000000000000000000000008152600401808060200182810382526038815260200180612d096038913960400191505060405180910390fd5b610d0f838361192c565b505050565b6000610d2060026119e5565b905090565b610d36610d30611890565b826119fa565b610d8b576040517f08c379a0000000000000000000000000000000000000000000000000000000008152600401808060200182810382526031815260200180612e2c6031913960400191505060405180910390fd5b610d96838383611aee565b505050565b6000610dee82600160008673ffffffffffffffffffffffffffffffffffffffff1673ffffffffffffffffffffffffffffffffffffffff168152602001908152602001600020611d3190919063ffffffff16565b905092915050565b610e11838383604051806020016040528060008152506114ac565b505050565b600080610e2d836002611d4b90919063ffffffff16565b50905080915050919050565b6000610e6982604051806060016040528060298152602001612d6b602991396002611d7a9092919063ffffffff16565b9050919050565b606060098054600181600116156101000203166002900480601f016020809104026020016040519081016040528092919081815260200182805460018160011615610100020316600290048015610f085780601f10610edd57610100808354040283529160200191610f08565b820191906000526020600020905b815481529060010190602001808311610eeb57829003601f168201915b5050505050905090565b60008073ffffffffffffffffffffffffffffffffffffffff168273ffffffffffffffffffffffffffffffffffffffff161415610f99576040517f08c379a000000000000000000000000000000000000000000000000000000000815260040180806020018281038252602a815260200180612d41602a913960400191505060405180910390fd5b610fe0600160008473ffffffffffffffffffffffffffffffffffffffff1673ffffffffffffffffffffffffffffffffffffffff168152602001908152602001600020611d99565b9050919050565b610fef611890565b73ffffffffffffffffffffffffffffffffffffffff1661100d611228565b73ffffffffffffffffffffffffffffffffffffffff1614611096576040517f08c379a00000000000000000000000000000000000000000000000000000000081526004018080602001828103825260208152602001807f4f776e61626c653a2063616c6c6572206973206e6f7420746865206f776e657281525060200191505060405180910390fd5b600073ffffffffffffffffffffffffffffffffffffffff16600a60009054906101000a900473ffffffffffffffffffffffffffffffffffffffff1673ffffffffffffffffffffffffffffffffffffffff167f8be0079c531659141344cd1fd0a4f28419497f9722a3daafe3b4186f6b6457e060405160405180910390a36000600a60006101000a81548173ffffffffffffffffffffffffffffffffffffffff021916908373ffffffffffffffffffffffffffffffffffffffff160217905550565b61115f611890565b73ffffffffffffffffffffffffffffffffffffffff1661117d611228565b73ffffffffffffffffffffffffffffffffffffffff1614611206576040517f08c379a00000000000000000000000000000000000000000000000000000000081526004018080602001828103825260208152602001807f4f776e61626c653a2063616c6c6572206973206e6f7420746865206f776e657281525060200191505060405180910390fd5b6000611210611dae565b905061121c8282611dcb565b611224611fbf565b5050565b6000600a60009054906101000a900473ffffffffffffffffffffffffffffffffffffffff16905090565b606060078054600181600116156101000203166002900480601f0160208091040260200160405190810160405280929190818152602001828054600181600116156101000203166002900480156112ea5780601f106112bf576101008083540402835291602001916112ea565b820191906000526020600020905b8154815290600101906020018083116112cd57829003601f168201915b5050505050905090565b6112fc611890565b73ffffffffffffffffffffffffffffffffffffffff168273ffffffffffffffffffffffffffffffffffffffff16141561139d576040517f08c379a00000000000000000000000000000000000000000000000000000000081526004018080602001828103825260198152602001807f4552433732313a20617070726f766520746f2063616c6c65720000000000000081525060200191505060405180910390fd5b80600560006113aa611890565b73ffffffffffffffffffffffffffffffffffffffff1673ffffffffffffffffffffffffffffffffffffffff16815260200190815260200160002060008473ffffffffffffffffffffffffffffffffffffffff1673ffffffffffffffffffffffffffffffffffffffff16815260200190815260200160002060006101000a81548160ff0219169083151502179055508173ffffffffffffffffffffffffffffffffffffffff16611457611890565b73ffffffffffffffffffffffffffffffffffffffff167f17307eab39ab6107e8899845ad3d59bd9653f200f220920489ca2b5937696c3183604051808215151515815260200191505060405180910390a35050565b6114bd6114b7611890565b836119fa565b611512576040517f08c379a0000000000000000000000000000000000000000000000000000000008152600401808060200182810382526031815260200180612e2c6031913960400191505060405180910390fd5b61151e84848484611fd3565b50505050565b606061152f82612045565b9050919050565b606060405180602001604052806000815250905090565b600080600b60009054906101000a900473ffffffffffffffffffffffffffffffffffffffff1690508273ffffffffffffffffffffffffffffffffffffffff168173ffffffffffffffffffffffffffffffffffffffff1663c4552791866040518263ffffffff1660e01b8152600401808273ffffffffffffffffffffffffffffffffffffffff1673ffffffffffffffffffffffffffffffffffffffff16815260200191505060206040518083038186803b15801561160957600080fd5b505afa15801561161d573d6000803e3d6000fd5b505050506040513d602081101561163357600080fd5b810190808051906020019092919050505073ffffffffffffffffffffffffffffffffffffffff16141561166a576001915050611678565b6116748484611898565b9150505b92915050565b611686611890565b73ffffffffffffffffffffffffffffffffffffffff166116a4611228565b73ffffffffffffffffffffffffffffffffffffffff161461172d576040517f08c379a00000000000000000000000000000000000000000000000000000000081526004018080602001828103825260208152602001807f4f776e61626c653a2063616c6c6572206973206e6f7420746865206f776e657281525060200191505060405180910390fd5b600073ffffffffffffffffffffffffffffffffffffffff168173ffffffffffffffffffffffffffffffffffffffff1614156117b3576040517f08c379a0000000000000000000000000000000000000000000000000000000008152600401808060200182810382526026815260200180612c6d6026913960400191505060405180910390fd5b8073ffffffffffffffffffffffffffffffffffffffff16600a60009054906101000a900473ffffffffffffffffffffffffffffffffffffffff1673ffffffffffffffffffffffffffffffffffffffff167f8be0079c531659141344cd1fd0a4f28419497f9722a3daafe3b4186f6b6457e060405160405180910390a380600a60006101000a81548173ffffffffffffffffffffffffffffffffffffffff021916908373ffffffffffffffffffffffffffffffffffffffff16021790555050565b600061188982600261217590919063ffffffff16565b9050919050565b600033905090565b6000600560008473ffffffffffffffffffffffffffffffffffffffff1673ffffffffffffffffffffffffffffffffffffffff16815260200190815260200160002060008373ffffffffffffffffffffffffffffffffffffffff1673ffffffffffffffffffffffffffffffffffffffff16815260200190815260200160002060009054906101000a900460ff16905092915050565b816004600083815260200190815260200160002060006101000a81548173ffffffffffffffffffffffffffffffffffffffff021916908373ffffffffffffffffffffffffffffffffffffffff160217905550808273ffffffffffffffffffffffffffffffffffffffff1661199f83610e39565b73ffffffffffffffffffffffffffffffffffffffff167f8c5be1e5ebec7d5bd14f71427d1e84f3dd0314c0f7b2291e5b200ac8c7c3b92560405160405180910390a45050565b60006119f38260000161218f565b9050919050565b6000611a0582611873565b611a5a576040517f08c379a000000000000000000000000000000000000000000000000000000000815260040180806020018281038252602c815260200180612cdd602c913960400191505060405180910390fd5b6000611a6583610e39565b90508073ffffffffffffffffffffffffffffffffffffffff168473ffffffffffffffffffffffffffffffffffffffff161480611ad457508373ffffffffffffffffffffffffffffffffffffffff16611abc84610b35565b73ffffffffffffffffffffffffffffffffffffffff16145b80611ae55750611ae48185611898565b5b91505092915050565b8273ffffffffffffffffffffffffffffffffffffffff16611b0e82610e39565b73ffffffffffffffffffffffffffffffffffffffff1614611b7a576040517f08c379a0000000000000000000000000000000000000000000000000000000008152600401808060200182810382526029815260200180612de26029913960400191505060405180910390fd5b600073ffffffffffffffffffffffffffffffffffffffff168273ffffffffffffffffffffffffffffffffffffffff161415611c00576040517f08c379a0000000000000000000000000000000000000000000000000000000008152600401808060200182810382526024815260200180612c936024913960400191505060405180910390fd5b611c0b8383836121a0565b611c1660008261192c565b611c6781600160008673ffffffffffffffffffffffffffffffffffffffff1673ffffffffffffffffffffffffffffffffffffffff1681526020019081526020016000206121a590919063ffffffff16565b50611cb981600160008573ffffffffffffffffffffffffffffffffffffffff1673ffffffffffffffffffffffffffffffffffffffff1681526020019081526020016000206121bf90919063ffffffff16565b50611cd0818360026121d99092919063ffffffff16565b50808273ffffffffffffffffffffffffffffffffffffffff168473ffffffffffffffffffffffffffffffffffffffff167fddf252ad1be2c89b69c2b068fc378daa952ba7f163c4a11628f55a4df523b3ef60405160405180910390a4505050565b6000611d40836000018361220e565b60001c905092915050565b600080600080611d5e8660000186612291565b915091508160001c8160001c8090509350935050509250929050565b6000611d8d846000018460001b8461232a565b60001c90509392505050565b6000611da782600001612420565b9050919050565b6000611dc66001600c5461243190919063ffffffff16565b905090565b600073ffffffffffffffffffffffffffffffffffffffff168273ffffffffffffffffffffffffffffffffffffffff161415611e6e576040517f08c379a00000000000000000000000000000000000000000000000000000000081526004018080602001828103825260208152602001807f4552433732313a206d696e7420746f20746865207a65726f206164647265737381525060200191505060405180910390fd5b611e7781611873565b15611eea576040517f08c379a000000000000000000000000000000000000000000000000000000000815260040180806020018281038252601c8152602001807f4552433732313a20746f6b656e20616c7265616479206d696e7465640000000081525060200191505060405180910390fd5b611ef6600083836121a0565b611f4781600160008573ffffffffffffffffffffffffffffffffffffffff1673ffffffffffffffffffffffffffffffffffffffff1681526020019081526020016000206121bf90919063ffffffff16565b50611f5e818360026121d99092919063ffffffff16565b50808273ffffffffffffffffffffffffffffffffffffffff16600073ffffffffffffffffffffffffffffffffffffffff167fddf252ad1be2c89b69c2b068fc378daa952ba7f163c4a11628f55a4df523b3ef60405160405180910390a45050565b600c60008154809291906001019190505550565b611fde848484611aee565b611fea848484846124b9565b61203f576040517f08c379a0000000000000000000000000000000000000000000000000000000008152600401808060200182810382526032815260200180612c3b6032913960400191505060405180910390fd5b50505050565b6060600082141561208d576040518060400160405280600181526020017f30000000000000000000000000000000000000000000000000000000000000008152509050612170565b600082905060005b600082146120b7578080600101915050600a82816120af57fe5b049150612095565b6060816040519080825280601f01601f1916602001820160405280156120ec5781602001600182028038833980820191505090505b50905060006001830390508593505b6000841461216857600a848161210d57fe5b0660300160f81b8282806001900393508151811061212757fe5b60200101907effffffffffffffffffffffffffffffffffffffffffffffffffffffffffffff1916908160001a905350600a848161216057fe5b0493506120fb565b819450505050505b919050565b6000612187836000018360001b6126fe565b905092915050565b600081600001805490509050919050565b505050565b60006121b7836000018360001b612721565b905092915050565b60006121d1836000018360001b612809565b905092915050565b6000612205846000018460001b8473ffffffffffffffffffffffffffffffffffffffff1660001b612879565b90509392505050565b60008183600001805490501161226f576040517f08c379a0000000000000000000000000000000000000000000000000000000008152600401808060200182810382526022815260200180612c196022913960400191505060405180910390fd5b82600001828154811061227e57fe5b9060005260206000200154905092915050565b600080828460000180549050116122f3576040517f08c379a0000000000000000000000000000000000000000000000000000000008152600401808060200182810382526022815260200180612d946022913960400191505060405180910390fd5b600084600001848154811061230457fe5b906000526020600020906002020190508060000154816001015492509250509250929050565b600080846001016000858152602001908152602001600020549050600081141583906123f1576040517f08c379a00000000000000000000000000000000000000000000000000000000081526004018080602001828103825283818151815260200191508051906020019080838360005b838110156123b657808201518184015260208101905061239b565b50505050905090810190601f1680156123e35780820380516001836020036101000a031916815260200191505b509250505060405180910390fd5b5084600001600182038154811061240457fe5b9060005260206000209060020201600101549150509392505050565b600081600001805490509050919050565b6000808284019050838110156124af576040517f08c379a000000000000000000000000000000000000000000000000000000000815260040180806020018281038252601b8152602001807f536166654d6174683a206164646974696f6e206f766572666c6f77000000000081525060200191505060405180910390fd5b8091505092915050565b60006124da8473ffffffffffffffffffffffffffffffffffffffff16612955565b6124e757600190506126f6565b606061267d63150b7a0260e01b6124fc611890565b888787604051602401808573ffffffffffffffffffffffffffffffffffffffff1673ffffffffffffffffffffffffffffffffffffffff1681526020018473ffffffffffffffffffffffffffffffffffffffff1673ffffffffffffffffffffffffffffffffffffffff16815260200183815260200180602001828103825283818151815260200191508051906020019080838360005b838110156125ac578082015181840152602081019050612591565b50505050905090810190601f1680156125d95780820380516001836020036101000a031916815260200191505b5095505050505050604051602081830303815290604052907bffffffffffffffffffffffffffffffffffffffffffffffffffffffff19166020820180517bffffffffffffffffffffffffffffffffffffffffffffffffffffffff8381831617835250505050604051806060016040528060328152602001612c3b603291398773ffffffffffffffffffffffffffffffffffffffff166129689092919063ffffffff16565b9050600081806020019051602081101561269657600080fd5b8101908080519060200190929190505050905063150b7a0260e01b7bffffffffffffffffffffffffffffffffffffffffffffffffffffffff1916817bffffffffffffffffffffffffffffffffffffffffffffffffffffffff191614925050505b949350505050565b600080836001016000848152602001908152602001600020541415905092915050565b600080836001016000848152602001908152602001600020549050600081146127fd576000600182039050600060018660000180549050039050600086600001828154811061276c57fe5b906000526020600020015490508087600001848154811061278957fe5b90600052602060002001819055506001830187600101600083815260200190815260200160002081905550866000018054806127c157fe5b60019003818190600052602060002001600090559055866001016000878152602001908152602001600020600090556001945050505050612803565b60009150505b92915050565b60006128158383612980565b61286e578260000182908060018154018082558091505060019003906000526020600020016000909190919091505582600001805490508360010160008481526020019081526020016000208190555060019050612873565b600090505b92915050565b60008084600101600085815260200190815260200160002054905060008114156129205784600001604051806040016040528086815260200185815250908060018154018082558091505060019003906000526020600020906002020160009091909190915060008201518160000155602082015181600101555050846000018054905085600101600086815260200190815260200160002081905550600191505061294e565b8285600001600183038154811061293357fe5b90600052602060002090600202016001018190555060009150505b9392505050565b600080823b905060008111915050919050565b606061297784846000856129a3565b90509392505050565b600080836001016000848152602001908152602001600020541415905092915050565b6060824710156129fe576040517f08c379a0000000000000000000000000000000000000000000000000000000008152600401808060200182810382526026815260200180612cb76026913960400191505060405180910390fd5b612a0785612955565b612a79576040517f08c379a000000000000000000000000000000000000000000000000000000000815260040180806020018281038252601d8152602001807f416464726573733a2063616c6c20746f206e6f6e2d636f6e747261637400000081525060200191505060405180910390fd5b600060608673ffffffffffffffffffffffffffffffffffffffff1685876040518082805190602001908083835b60208310612ac95780518252602082019150602081019050602083039250612aa6565b6001836020036101000a03801982511681845116808217855250505050505090500191505060006040518083038185875af1925050503d8060008114612b2b576040519150601f19603f3d011682016040523d82523d6000602084013e612b30565b606091505b5091509150612b40828286612b4c565b92505050949350505050565b60608315612b5c57829050612c11565b600083511115612b6f5782518084602001fd5b816040517f08c379a00000000000000000000000000000000000000000000000000000000081526004018080602001828103825283818151815260200191508051906020019080838360005b83811015612bd6578082015181840152602081019050612bbb565b50505050905090810190601f168015612c035780820380516001836020036101000a031916815260200191505b509250505060405180910390fd5b939250505056fe456e756d657261626c655365743a20696e646578206f7574206f6620626f756e64734552433732313a207472616e7366657220746f206e6f6e20455243373231526563656976657220696d706c656d656e7465724f776e61626c653a206e6577206f776e657220697320746865207a65726f20616464726573734552433732313a207472616e7366657220746f20746865207a65726f2061646472657373416464726573733a20696e73756666696369656e742062616c616e636520666f722063616c6c4552433732313a206f70657261746f7220717565727920666f72206e6f6e6578697374656e7420746f6b656e4552433732313a20617070726f76652063616c6c6572206973206e6f74206f776e6572206e6f7220617070726f76656420666f7220616c6c4552433732313a2062616c616e636520717565727920666f7220746865207a65726f20616464726573734552433732313a206f776e657220717565727920666f72206e6f6e6578697374656e7420746f6b656e456e756d657261626c654d61703a20696e646578206f7574206f6620626f756e64734552433732313a20617070726f76656420717565727920666f72206e6f6e6578697374656e7420746f6b656e4552433732313a207472616e73666572206f6620746f6b656e2074686174206973206e6f74206f776e4552433732313a20617070726f76616c20746f2063757272656e74206f776e65724552433732313a207472616e736665722063616c6c6572206973206e6f74206f776e6572206e6f7220617070726f766564a2646970667358221220f3189b0783b35b15754965b4d9bc5b2c672a81a0a49f3fe3290a0df0c5d5ab5a64736f6c63430006020033",
  "source": "/**pragma solidity ^0.5.5;*/\npragma solidity >=0.4.22 <0.9.0;\n\n/** pragma solidity ^0.5.5;*/\n\nimport \"@openzeppelin/contracts/token/ERC721/ERC721.sol\";\nimport \"@openzeppelin/contracts/access/Ownable.sol\";\nimport \"@openzeppelin/contracts/utils/Strings.sol\";\n\ncontract OwnableDelegateProxy {}\n\ncontract ProxyRegistry {\n    mapping(address => OwnableDelegateProxy) public proxies;\n}\n\n/**\n * @title ERC721Tradable\n * ERC721Tradable - ERC721 contract that whitelists a trading address, and has minting functionality.\n */\ncontract ERC721Tradable is ERC721, Ownable {\n    using Strings for string;\n\n    address proxyRegistryAddress;\n    uint256 private _currentTokenId = 0;\n\n    constructor(\n        string memory _name,\n        string memory _symbol,\n        address _proxyRegistryAddress\n    ) public ERC721(_name, _symbol) {\n        proxyRegistryAddress = _proxyRegistryAddress;\n    }\n\n    /**\n     * @dev Mints a token to an address with a tokenURI.\n     * @param _to address of the future owner of the token\n     */\n    function mintTo(address _to) public onlyOwner {\n        uint256 newTokenId = _getNextTokenId();\n        _mint(_to, newTokenId);\n        _incrementTokenId();\n    }\n\n    /**\n     * @dev calculates the next token ID based on value of _currentTokenId\n     * @return uint256 for the next token ID\n     */\n    function _getNextTokenId() private view returns (uint256) {\n        return _currentTokenId.add(1);\n    }\n\n    /**\n     * @dev increments the value of _currentTokenId\n     */\n    function _incrementTokenId() private {\n        _currentTokenId++;\n    }\n\n    function baseTokenURI() public pure virtual returns (string memory) {\n        return \"\";\n    }\n\n    function tokenURI(uint256 _tokenId) public view override returns (string memory) {\n        return Strings.toString(_tokenId);\n    }\n\n    /**\n     * Override isApprovedForAll to whitelist user's OpenSea proxy accounts to enable gas-less listings.\n     */\n    function isApprovedForAll(address owner, address operator)\n        public\n        view\n        override\n        returns (bool)\n    {\n        // Whitelist OpenSea proxy contract for easy trading.\n        ProxyRegistry proxyRegistry = ProxyRegistry(proxyRegistryAddress);\n        if (address(proxyRegistry.proxies(owner)) == operator) {\n            return true;\n        }\n\n        return super.isApprovedForAll(owner, operator);\n    }\n}",
  "sourcePath": "/home/icculp/Minter_v1/v2/contracts/ERC721Tradable.sol",
  "compiler": {
    "name": "solc",
    "version": "0.6.2+commit.bacdbe57.Emscripten.clang"
  },
  "schemaVersion": "3.3.4",
  "updatedAt": "2021-03-20T03:36:25.678Z",
  "devdoc": {
    "methods": {
      "approve(address,uint256)": {
        "details": "See {IERC721-approve}."
      },
      "balanceOf(address)": {
        "details": "See {IERC721-balanceOf}."
      },
      "baseURI()": {
        "details": "Returns the base URI set via {_setBaseURI}. This will be automatically added as a prefix in {tokenURI} to each token's URI, or to the token ID if no specific URI is set for that token ID."
      },
      "getApproved(uint256)": {
        "details": "See {IERC721-getApproved}."
      },
      "mintTo(address)": {
        "details": "Mints a token to an address with a tokenURI.",
        "params": {
          "_to": "address of the future owner of the token"
        }
      },
      "name()": {
        "details": "See {IERC721Metadata-name}."
      },
      "owner()": {
        "details": "Returns the address of the current owner."
      },
      "ownerOf(uint256)": {
        "details": "See {IERC721-ownerOf}."
      },
      "renounceOwnership()": {
        "details": "Leaves the contract without owner. It will not be possible to call `onlyOwner` functions anymore. Can only be called by the current owner.     * NOTE: Renouncing ownership will leave the contract without an owner, thereby removing any functionality that is only available to the owner."
      },
      "safeTransferFrom(address,address,uint256)": {
        "details": "See {IERC721-safeTransferFrom}."
      },
      "safeTransferFrom(address,address,uint256,bytes)": {
        "details": "See {IERC721-safeTransferFrom}."
      },
      "setApprovalForAll(address,bool)": {
        "details": "See {IERC721-setApprovalForAll}."
      },
      "supportsInterface(bytes4)": {
        "details": "See {IERC165-supportsInterface}.     * Time complexity O(1), guaranteed to always use less than 30 000 gas."
      },
      "symbol()": {
        "details": "See {IERC721Metadata-symbol}."
      },
      "tokenByIndex(uint256)": {
        "details": "See {IERC721Enumerable-tokenByIndex}."
      },
      "tokenOfOwnerByIndex(address,uint256)": {
        "details": "See {IERC721Enumerable-tokenOfOwnerByIndex}."
      },
      "totalSupply()": {
        "details": "See {IERC721Enumerable-totalSupply}."
      },
      "transferFrom(address,address,uint256)": {
        "details": "See {IERC721-transferFrom}."
      },
      "transferOwnership(address)": {
        "details": "Transfers ownership of the contract to a new account (`newOwner`). Can only be called by the current owner."
      }
    },
    "title": "ERC721Tradable ERC721Tradable - ERC721 contract that whitelists a trading address, and has minting functionality."
  },
  "userdoc": {
    "methods": {
      "isApprovedForAll(address,address)": {
        "notice": "Override isApprovedForAll to whitelist user's OpenSea proxy accounts to enable gas-less listings."
      }
    }
  }
}